{
  "_format": "hh-sol-artifact-1",
  "contractName": "WavePortal",
  "sourceName": "contracts/WavePortal.sol",
  "abi": [
    {
      "inputs": [],
      "stateMutability": "nonpayable",
      "type": "constructor"
    },
    {
      "anonymous": false,
      "inputs": [
        {
          "indexed": true,
          "internalType": "address",
          "name": "from",
          "type": "address"
        },
        {
          "indexed": false,
          "internalType": "uint256",
          "name": "timestamp",
          "type": "uint256"
        },
        {
          "indexed": false,
          "internalType": "string",
          "name": "message",
          "type": "string"
        }
      ],
      "name": "NewWave",
      "type": "event"
    },
    {
      "inputs": [],
      "name": "displayTotalWaves",
      "outputs": [
        {
          "internalType": "uint256",
          "name": "",
          "type": "uint256"
        }
      ],
      "stateMutability": "view",
      "type": "function"
    },
    {
      "inputs": [],
      "name": "getAllWaves",
      "outputs": [
        {
          "components": [
            {
              "internalType": "address",
              "name": "waver",
              "type": "address"
            },
            {
              "internalType": "string",
              "name": "message",
              "type": "string"
            },
            {
              "internalType": "uint256",
              "name": "timestamp",
              "type": "uint256"
            }
          ],
          "internalType": "struct WavePortal.Wave[]",
          "name": "",
          "type": "tuple[]"
        }
      ],
      "stateMutability": "view",
      "type": "function"
    },
    {
      "inputs": [
        {
          "internalType": "string",
          "name": "_message",
          "type": "string"
        }
      ],
      "name": "wave",
      "outputs": [],
      "stateMutability": "nonpayable",
      "type": "function"
    }
  ],
  "bytecode": "0x60806040523480156200001157600080fd5b506200005d6040518060400160405280601d81526020017f4769742050726f6a65637420666f7220576562332073746172746572730000008152506200006360201b620004861760201c565b620001f7565b62000103816040516024016200007a919062000170565b6040516020818303038152906040527f41304fac000000000000000000000000000000000000000000000000000000007bffffffffffffffffffffffffffffffffffffffffffffffffffffffff19166020820180517bffffffffffffffffffffffffffffffffffffffffffffffffffffffff83818316178352505050506200010660201b60201c565b50565b60008151905060006a636f6e736f6c652e6c6f679050602083016000808483855afa5050505050565b60006200013c8262000194565b6200014881856200019f565b93506200015a818560208601620001b0565b6200016581620001e6565b840191505092915050565b600060208201905081810360008301526200018c81846200012f565b905092915050565b600081519050919050565b600082825260208201905092915050565b60005b83811015620001d0578082015181840152602081019050620001b3565b83811115620001e0576000848401525b50505050565b6000601f19601f8301169050919050565b610ce380620002076000396000f3fe608060405234801561001057600080fd5b50600436106100415760003560e01c8063449d46c014610046578063adbf99d314610062578063bd43a90814610080575b600080fd5b610060600480360381019061005b919061078b565b61009e565b005b61006a6102ea565b60405161007791906109f7565b60405180910390f35b610088610335565b6040516100959190610953565b60405180910390f35b6100dd6040518060400160405280601181526020017f616464696e6720776176652066726f6d200000000000000000000000000000008152503361051f565b60016000808282546100ef9190610b09565b925050819055506001600260003373ffffffffffffffffffffffffffffffffffffffff1673ffffffffffffffffffffffffffffffffffffffff16815260200190815260200160002060008282546101469190610b09565b92505081905550600460405180606001604052803373ffffffffffffffffffffffffffffffffffffffff16815260200183815260200142815250908060018154018082558091505060019003906000526020600020906003020160009091909190915060008201518160000160006101000a81548173ffffffffffffffffffffffffffffffffffffffff021916908373ffffffffffffffffffffffffffffffffffffffff160217905550602082015181600101908051906020019061020c929190610680565b506040820151816002015550506102976040518060400160405280601681526020017f7761766520636f756e746572206f6620796f7572732000000000000000000000815250600260003373ffffffffffffffffffffffffffffffffffffffff1673ffffffffffffffffffffffffffffffffffffffff168152602001908152602001600020546105bb565b3373ffffffffffffffffffffffffffffffffffffffff167f5f7e16dc676677766a70e9c5628aa6c54ddb8b6e5188e2ae1e1f17f1ffbea71642836040516102df929190610a12565b60405180910390a250565b600061032d6040518060400160405280601481526020017f746f74616c20776176657320636f756e746572200000000000000000000000008152506000546105bb565b600054905090565b60606004805480602002602001604051908101604052809291908181526020016000905b8282101561047d57838290600052602060002090600302016040518060600160405290816000820160009054906101000a900473ffffffffffffffffffffffffffffffffffffffff1673ffffffffffffffffffffffffffffffffffffffff1673ffffffffffffffffffffffffffffffffffffffff1681526020016001820180546103e290610bdd565b80601f016020809104026020016040519081016040528092919081815260200182805461040e90610bdd565b801561045b5780601f106104305761010080835404028352916020019161045b565b820191906000526020600020905b81548152906001019060200180831161043e57829003601f168201915b5050505050815260200160028201548152505081526020019060010190610359565b50505050905090565b61051c8160405160240161049a9190610975565b6040516020818303038152906040527f41304fac000000000000000000000000000000000000000000000000000000007bffffffffffffffffffffffffffffffffffffffffffffffffffffffff19166020820180517bffffffffffffffffffffffffffffffffffffffffffffffffffffffff8381831617835250505050610657565b50565b6105b78282604051602401610535929190610997565b6040516020818303038152906040527f319af333000000000000000000000000000000000000000000000000000000007bffffffffffffffffffffffffffffffffffffffffffffffffffffffff19166020820180517bffffffffffffffffffffffffffffffffffffffffffffffffffffffff8381831617835250505050610657565b5050565b61065382826040516024016105d19291906109c7565b6040516020818303038152906040527f9710a9d0000000000000000000000000000000000000000000000000000000007bffffffffffffffffffffffffffffffffffffffffffffffffffffffff19166020820180517bffffffffffffffffffffffffffffffffffffffffffffffffffffffff8381831617835250505050610657565b5050565b60008151905060006a636f6e736f6c652e6c6f679050602083016000808483855afa5050505050565b82805461068c90610bdd565b90600052602060002090601f0160209004810192826106ae57600085556106f5565b82601f106106c757805160ff19168380011785556106f5565b828001600101855582156106f5579182015b828111156106f45782518255916020019190600101906106d9565b5b5090506107029190610706565b5090565b5b8082111561071f576000816000905550600101610707565b5090565b600061073661073184610a73565b610a42565b90508281526020810184848401111561074e57600080fd5b610759848285610b9b565b509392505050565b600082601f83011261077257600080fd5b8135610782848260208601610723565b91505092915050565b60006020828403121561079d57600080fd5b600082013567ffffffffffffffff8111156107b757600080fd5b6107c384828501610761565b91505092915050565b60006107d883836108e5565b905092915050565b6107e981610b5f565b82525050565b6107f881610b5f565b82525050565b600061080982610ab3565b6108138185610ad6565b93508360208202850161082585610aa3565b8060005b85811015610861578484038952815161084285826107cc565b945061084d83610ac9565b925060208a01995050600181019050610829565b50829750879550505050505092915050565b600061087e82610abe565b6108888185610ae7565b9350610898818560208601610baa565b6108a181610c9c565b840191505092915050565b60006108b782610abe565b6108c18185610af8565b93506108d1818560208601610baa565b6108da81610c9c565b840191505092915050565b60006060830160008301516108fd60008601826107e0565b50602083015184820360208601526109158282610873565b915050604083015161092a6040860182610935565b508091505092915050565b61093e81610b91565b82525050565b61094d81610b91565b82525050565b6000602082019050818103600083015261096d81846107fe565b905092915050565b6000602082019050818103600083015261098f81846108ac565b905092915050565b600060408201905081810360008301526109b181856108ac565b90506109c060208301846107ef565b9392505050565b600060408201905081810360008301526109e181856108ac565b90506109f06020830184610944565b9392505050565b6000602082019050610a0c6000830184610944565b92915050565b6000604082019050610a276000830185610944565b8181036020830152610a3981846108ac565b90509392505050565b6000604051905081810181811067ffffffffffffffff82111715610a6957610a68610c6d565b5b8060405250919050565b600067ffffffffffffffff821115610a8e57610a8d610c6d565b5b601f19601f8301169050602081019050919050565b6000819050602082019050919050565b600081519050919050565b600081519050919050565b6000602082019050919050565b600082825260208201905092915050565b600082825260208201905092915050565b600082825260208201905092915050565b6000610b1482610b91565b9150610b1f83610b91565b9250827fffffffffffffffffffffffffffffffffffffffffffffffffffffffffffffffff03821115610b5457610b53610c0f565b5b828201905092915050565b6000610b6a82610b71565b9050919050565b600073ffffffffffffffffffffffffffffffffffffffff82169050919050565b6000819050919050565b82818337600083830152505050565b60005b83811015610bc8578082015181840152602081019050610bad565b83811115610bd7576000848401525b50505050565b60006002820490506001821680610bf557607f821691505b60208210811415610c0957610c08610c3e565b5b50919050565b7f4e487b7100000000000000000000000000000000000000000000000000000000600052601160045260246000fd5b7f4e487b7100000000000000000000000000000000000000000000000000000000600052602260045260246000fd5b7f4e487b7100000000000000000000000000000000000000000000000000000000600052604160045260246000fd5b6000601f19601f830116905091905056fea2646970667358221220be9a3c0aaac91409eb7ff65c9761ec5dd55f47f9b0a80902e6e1ee6c576a49ce64736f6c63430008000033",
  "linkReferences": {},
  "deployedLinkReferences": {}
}